:020000040800F2
:1000000048050020D5010008D9010008DB010008DF
:10001000DD010008DF010008E10100080000000028
:10002000000000000000000000000000E3010008E4
:10003000E501000800000000E7010008E9010008F0
:10004000EB010008EB010008EB010008EB010008E0
:10005000EB010008EB010008EB010008EB010008D0
:10006000EB010008EB010008EB010008EB010008C0
:10007000EB010008EB010008EB010008EB010008B0
:10008000EB010008EB010008EB010008EB010008A0
:10009000EB010008EB010008EB010008EB01000890
:1000A000EB010008EB010008EB010008EB01000880
:1000B000EB010008EB0100083D0B0008EB01000814
:1000C000EB010008EB010008EB010008EB01000860
:1000D000EB010008290E0008EB010008AD0E000836
:1000E000EB010008EB010008EB010008EB01000840
:1000F000EB010008EB010008EB010008EB01000830
:10010000EB010008EB010008EB010008EB0100081F
:10011000EB010008EB010008EB010008EB0100080F
:10012000EB010008EB010008EB010008EB010008FF
:1001300000F002F800F03FF80AA090E8000C8244BA
:100140008344AAF10107DA4501D100F034F8AFF297
:10015000090EBAE80F0013F0010F18BFFB1A43F0A5
:10016000010318470C1B00002C1B0000103A24BF91
:1001700078C878C1FAD8520724BF30C830C144BF0C
:1001800004680C607047000000230024002500264E
:10019000103A28BF78C1FBD8520728BF30C148BFEA
:1001A0000B607047642900F07180002070471FB514
:1001B0001FBD10B510BD00F031F91146FFF7F7FF74
:1001C00001F026F800F04FF903B4FFF7F2FF03BC8B
:1001D00000F0B2FF08480047FEE7FEE7FEE7FEE753
:1001E000FEE7FEE7FEE7FEE7FEE7FEE70348044919
:1001F000024A044B7047000031010008480100200A
:100200004805002048010020704700000FB4044951
:1002100010B503AA029800F0D3F810BC5DF814FBE7
:10022000040000202DE9F0410E4604460020206223
:100230002046E168884730B3252805D0D4E901215C
:100240009047206A401CF2E7E16820460027884773
:10025000050018D0A5F14100192802D820354FF427
:1002600000673246294620462760FFF79BFF40B1D2
:10027000012804D0F61D26F007060836D8E7361DFB
:10028000D6E72846DAE7206ABDE8F0812DE9F0419B
:100290000646002410687529314616A510D0AFF324
:1002A0000080002802DA404213A507E031688A077F
:1002B00001D512A502E0490704D511A5012401E0EA
:1002C000AFF3008000210A2206F1240709E0B0FB09
:1002D000F2FCB0FBF2F302FB1C00303078541846FD
:1002E000491C0028F3D123462A463046BDE8F04198
:1002F00000F00CB8000000002D0000002B000000F2
:100300002000000070477047704770472DE9F047A4
:100310000D4699469246044600F124080168880675
:1003200004D5E06921F01001216000E00120A8421D
:1003300001DD471B00E00027A1697A1902EB0900E3
:10034000081AA0612078C00602D42046AFF30080CE
:10035000002608E0D4E901211AF806009047206A37
:10036000401C761C20624E45F4DB2078C0060AD57E
:100370002046AFF3008006E0D4E901213020904709
:10038000206A401C2062381EA7F10107F4DC07E058
:10039000D4E9012118F805009047206A401C20622A
:1003A000281EA5F10105F3DC2046AFF3008020787C
:1003B000000602D50220BDE8F0870120FBE700001F
:1003C000074B70B50D467B4400F011F804462846F3
:1003D00000F020F810B14FF0FF3070BD204670BD26
:1003E0002B0E000001694A1C02610878704700B5B5
:1003F0008FB0CDE901310021059105497944CDE95E
:10040000031011466846FFF70DFF0FB000BD000056
:10041000E5FFFFFF007B00F080007047754600F0AD
:100420002BF8AE4605006946534620F00700854686
:1004300018B020B5FFF7DAFEBDE820404FF0000607
:100440004FF000074FF000084FF0000B21F00701BC
:10045000AC46ACE8C009ACE8C009ACE8C009ACE8FF
:10046000C0098D46704710B50446AFF300802046A2
:10047000BDE81040FFF7A8BE00487047E800002024
:1004800001200749086000200649C1F890010120B9
:1004900003491031086000200249C1F898017047F3
:1004A00084012142000021422DE9F05F04468A4682
:1004B000207800F0800098B1207800F03F094FEAE2
:1004C0000949D144484601F01EF80746064A074B41
:1004D00001F02CF8054600F0E9FF8346002020706B
:1004E0005846BDE8F09F00009CC420B07268913F60
:1004F00000200749086001200649C1F8900100204A
:1005000003491031086001200249C1F89801704781
:10051000840121420000214230E01948006848B9B6
:1005200017481030006828B9FFF7E2FF15A0FFF761
:100530006DFE23E01248006801280CD110481030ED
:10054000006840B900F0AAFE10A0FFF75FFE32205D
:1005500000F014FE12E00A48006868B9084810303C
:100560000068012808D100F0ADFE0AA0FFF74EFE9A
:10057000322000F003FE01E0FFF7BAFFCDE70000F4
:100580001C012142476F200D0A00000052200D0A75
:10059000000000004C2020200D0A000001E000F0C7
:1005A000D7FCFCE710B502A0FFF730FE10BD00003D
:1005B000626C75650000000070B504460D466F481A
:1005C000C06940F004006D49C8610846806940F088
:1005D000040088610846806940F008008861084688
:1005E000806940F0100088616548006820F07F4015
:1005F000634908600846006840F008400860081D2C
:100600000068604908405E49091D086008460068A6
:100610005D4908435A49091D086059480C30006873
:1006200057490C31086008460068086008460068B1
:1006300008600846006808600846006840F480507A
:1006400008600846006840F40050086008460068EA
:1006500040F4804008604D480480001F05804B48EE
:100660001438008840F001004849143908800846D1
:10067000008840F010000880084600880880434841
:100680000C38008841490C3908800846008840F041
:10069000010008803D481438008840F480703B49D0
:1006A000143908800846008840F4805008800846C5
:1006B0000088088035480C38008834490C39088097
:1006C0000846008840F010000880081F008840F0AD
:1006D0000100091F08800846008840F010000880CB
:1006E000084600880880081D0088091D0880084603
:1006F000008840F480700880081F008840F48070F3
:10070000091F08800846008840F480500880084689
:1007100000880880081D0088091D08800846008898
:1007200040F48050088019482038008840F00200CA
:100730001649203908800846008840F004000880E7
:100740000846008840F0080008800846008840F00D
:10075000100008800846008840F0010008800B481F
:100760002C38008840F0010008492C390880022309
:100770001E220021184600F02DF970BD0010024025
:10078000000C014000FF00F0880033032C080040FB
:100790000E48806940F004000C4988610C480068EC
:1007A00020F070400A4908600846006840F00040A8
:1007B0000860081D006820F47040091D08600846A4
:1007C000006840F4004008607047000000100240DC
:1007D0000008014001464906084A926942F00102B8
:1007E000064B9A61064A526822F0E062044B5A6056
:1007F0001A4652680A435A607047000000100240CF
:10080000000001401C48806940F004001A498861DA
:100810000846806940F0100088611848006820F0A0
:100820000F00164908600846006840F0080008609C
:10083000081D006820F07040091D08600846006827
:1008400040F0004008600D480C30006840F4004063
:100850000A490C3108600A48006820F47000084911
:1008600008600846006840F4000008600846C06858
:1008700040F02000C86070470010024000080140AE
:100880000010014010B504461948006838B11948F5
:10089000006820B117483C380068012816D10A20AA
:1008A00000F06CFC0020144908701148006808B979
:1008B000012010BD0F48006808B90220F9E70D4873
:1008C0003C380068012810D10320F2E7084800688E
:1008D00001280AD107480068012806D105483C389C
:1008E000006810B90120044908700020E1E7000009
:1008F000140122423C0121420A000020184880696C
:1009000040F00400164988610846806940F02000E4
:1009100088611448006820F00F00124908600846FA
:10092000006840F0030008600E480830006840F49A
:1009300080700C49083108600B48006820F4706032
:10094000094908600846006840F44070086006489D
:100950000C30006840F0040003490C310860704717
:1009600000100240040801400014014000B50020BE
:1009700015490861C8601420486100208861C86179
:100980000846006840F001000860084640680F49CA
:1009900008400D494860084600680D4908400A496A
:1009A00008600846006820F4802008600846406817
:1009B00020F4FE0048600020886000214FF00060B5
:1009C00000F058F800BD0000001002400000FFF8E1
:1009D000FFFFF6FE2DE9F0410746884614461D4606
:1009E000284600F033F8C5F1040007FA00F60F209E
:1009F000284100EA0800064306F00F06E21704EB60
:100A0000D2625211920002F1E022D2F80021214676
:100A1000E31704EBD3635B11A4EB431C012303FA3C
:100A20000CF31A432046E31704EBD3635B119B00DE
:100A300003F1E023C3F800210348005D40EA0610FB
:100A400001490855BDE8F08100E400E001460723B4
:100A500023EA01021202054B18684FF6FF03184003
:100A6000034B18431043014B186070470CED00E036
:100A70000000FA05024A0A400243024B1A6070471E
:100A800080FFFF1F08ED00E00020064908600649CE
:100A9000C1F890010349103108600349C1F8980179
:100AA00070470000840121420000214230B5044615
:100AB0000025FFF75BFF1F48006840F480301D49A8
:100AC000086000BF1B480068400C0028FAD04FF4B3
:100AD000806018494860A01EC4B20846406840EAD9
:100AE000844048600846406840F4803048601248BE
:100AF000006840F03200104908600E48006840F07D
:100B000080700C49086000BF0A480068400E002849
:100B1000FAD00848406840F002000649486005E005
:100B200004484068C0F3870505F00305022DF7D19E
:100B300030BD00000010024000200240B14908888A
:100B4000B149097801F08001002949D100F0010183
:100B5000D1B1AD49097801F04001A9B1AA4909789C
:100B600001F03F013F290AD1A749097841F08001EE
:100B7000A54A11704FF6FF71A44A118004E0A24902
:100B80000978491CA04A117000F0020141B39E4946
:100B9000097801F0400199B19B49097841F0800141
:100BA000994A1170974924310988984A11809549CA
:100BB0001031098821F00201924A103211800FE0B1
:100BC0000021924A118040218F4A117000218D4AE4
:100BD00014321180111F098841F00201121F118087
:100BE0008B49097801F08001002951D100F0010101
:100BF000D1B18749097801F04001A9B18449097848
:100C000001F03F013F290AD18149097841F0800173
:100C10007F4A11704FF6FF717E4A118004E07C49D3
:100C20000978491C7A4A117000F0040181B37849AF
:100C3000097801F0400199B17549097841F08001C6
:100C4000734A11706F4928310988724A11806D49C1
:100C50001031098821F020016A4A1032118017E012
:100C600000216C4A11804021694A11700021654AB7
:100C700014321180111F098841F02001121F1180C8
:100C800060491039098841F001015E4A103A11802B
:100C90006149097801F08001002958D100F0010173
:100CA000D1B15D49097801F04001A9B15A490978EB
:100CB00001F03F013F290AD15749097841F08001ED
:100CC000554A11704FF6FF71544A118004E05249A1
:100CD0000978491C504A117000F00801B9B34E4917
:100CE000097801F0400199B14B49097841F0800140
:100CF000494A117043492C310988484A11804149B9
:100D00001031098821F400713E4A103211801EE032
:100D10000021424A118040213F4A11700021394A86
:100D20001432118037492C3109883C4A11803549E9
:100D30001031098841F40071324A10321180314972
:100D40001039098841F001012E4A103A11803449C6
:100D5000097801F08001C1BB00F00101D1B1304937
:100D6000097801F04001A9B12D49097801F03F014E
:100D70003F290AD12A49097841F08001284A117097
:100D80004FF6FF71274A118004E025490978491C74
:100D9000234A117000F01001B9B12149097801F01E
:100DA000400199B11E49097841F080011C4A117037
:100DB0001449303109881B4A1180124910310988C1
:100DC00021F400510F4A1032118017E00021154A1A
:100DD00011804021124A117000210A4A14321180F8
:100DE000111F098841F40051121F11800549103963
:100DF000098841F00101034A103A11800021014A9B
:100E000011807047100800401000002012000020E0
:100E10001400002016000020180000201A000020F6
:100E20001C0000201E0000201D49098801F020013F
:100E300011B31B49091D0988C8B21A49098801F470
:100E40000041C9B91749098801F4804161B10A28F4
:100E500003D00021134A118020E01249098841F48F
:100E60000041104A118019E00D2806D10D4909886A
:100E700041F480410B4A118010E00A490988C1F30E
:100E80000D01094A505407490988491C054A118037
:100E900011460988C72901DD002111807047000033
:100EA00000380140080000202000002010B51B4839
:100EB000008800F0200000282ED01848001D00886F
:100EC000C4B2214616A0FFF7A1F9012C05D1FFF706
:100ED0000FFB15A0FFF79AF91EE0022C05D1FFF7D2
:100EE000CFFA13A0FFF792F916E0032C05D100F01A
:100EF000D5F911A0FFF78AF90EE0042C05D100F016
:100F0000E1F90FA0FFF782F906E0052C04D1FFF705
:100F1000BBFD0DA0FFF77AF910BD000000480040AE
:100F20000D0A2564000000000D0A474F0000000074
:100F30000D0A4261636B00000D0A4C656674000087
:100F40000D0A5269676874000D0A53746F700000CF
:100F500070B501203B490860142000F02DF90020F5
:100F60003949C1F8B801394801883948FFF79CFA76
:100F70000446142000F020F901203249091F0860BE
:100F8000142000F019F900202F49C1F8B4013148AC
:100F900001883148FFF788FA0646142000F00CF962
:100FA0000120284908390860142000F005F90020C4
:100FB0002549C1F8B001294801882948FFF774FA8A
:100FC0000546214627A0FFF721F9314629A0FFF762
:100FD0001DF929462BA0FFF719F9142E09D90A2C5F
:100FE00007D90A2D05D92BA0FFF710F9FFF780FAD2
:100FF00024E00A2D08D22AA0FFF708F900F04EF9E4
:10100000142000F0BBF819E00A2C08D227A0FFF743
:10101000FDF800F057F9142000F0B0F80EE026A01B
:10102000FFF7F4F8FFF72CFA4FF4FA7000F0A6F887
:1010300000F034F94FF4967000F0A0F8642000F04E
:101040009DF870BDB8812142008021421600002029
:10105000140000201A000020180000201E000020AC
:101060001C0000206C656E677468313A25640D0AB7
:10107000000000006C656E677468323A25640D0AE2
:10108000000000006C656E677468333A25640D0AD1
:1010900000000000474F202020200D0A0000000023
:1010A0004C454654202020200D0A00005249474854
:1010B000542020200D0A00004241434B2020200DE7
:1010C0000A000000194AD26942F00102174BDA61A6
:1010D0001A46926942F004029A61154A126802F0B7
:1010E0007F42134B1A601A461268124B1A43104B78
:1010F0001A60DA0490851185928B42F07002DB044D
:101100009A831A46128C42F480721A841A46928B81
:1011100042F4E0429A831A46128C42F480521A84B6
:101120001A46128842F001021A80704700100240ED
:101130000008014030BB330300BF70474FF0E0218F
:10114000096921F004014FF0E0221161C21700EBA0
:101150005272C2F3C702074B1A701946097801EBA5
:101160004102C2EBC1114FF6FF7202EAC101024A0D
:1011700011807047000000200200002001460D4A47
:1011800012884A434FF0E0235A6100229A610122FB
:101190001A6100BF4FF0E022106900F001021AB19D
:1011A00000F48032002AF5D000224FF0E0231A61CB
:1011B0009A6170470200002001460D4A12784A43A6
:1011C0004FF0E0235A6100229A6101221A6100BFA8
:1011D0004FF0E022106900F001021AB100F48032F1
:1011E000002AF5D000224FF0E0231A619A6170477F
:1011F0000000002000BF054A128802F04002002AC9
:10120000F9D0C2B2014B1B1D1A8070470038014053
:101210000A20FFF7DFFA0920FFF748FC4FF41651C8
:10122000482000F0D5F84FF41651242000F05EF865
:101230004820FFF783FF002141F61F40FFF742FFE0
:10124000FFF7A6FAFFF75AFBFFF7DCFA47214FF644
:10125000FF70FFF7B1F941F28830C106888740F688
:1012600048500D49088016E00020FFF70BFB0446AC
:10127000012C04D0022C04D0032C07D103E0FFF78B
:101280004BF9FFF78BF9FFF78DF903E00A20FFF721
:1012900075FF00BF00BFE7E740000040002007499E
:1012A000086001200649C1F8900104491031086026
:1012B00000200349C1F898017047000084012142D1
:1012C0000000214201200749086000200649C1F8BA
:1012D000900104491031086001200349C1F89801C8
:1012E0007047000084012142000021422DE9F05F97
:1012F00005460E46300100F05BFB81462F4905FB99
:1013000001F000F055FB8246494600F06FFA0746AF
:10131000384600F02DFB84B2204600F049FB83469E
:10132000394600F025FC82464FF0834100F054FB23
:10133000814600F01DFB80464FF6FF7000EA041462
:1013400004EB080084B21E48806940F008001C4984
:1013500088610846C06940F48020C8611948006867
:1013600020F47F40174908600846006840F40B40AD
:1013700008601348C06840F480201149C8600846DE
:10138000C06820F48020C8600F480480001D0088D9
:1013900042F20C0108430C49091D088008460088E8
:1013A00040F02000088000200849088002232722FE
:1013B00003210846FFF70EFBBDE8F09F40420F00F7
:1013C00000100240040C0140084800400E000020BC
:1013D0002DE9F05F05460E46300100F0E9FA81463E
:1013E0002E4905FB01F000F0E3FA8246494600F081
:1013F000FDF90746384600F0BBFA84B2204600F0FB
:10140000D7FA8346394600F0B3FB82464FF083415A
:1014100000F0E2FA814600F0ABFA80464FF6FF702A
:1014200000EA041404EB080084B21D48806940F00F
:1014300004001B4988610846806940F48040886147
:101440001848006820F47F60164908600846006864
:1014500040F40B6008601248C06840F480401049B6
:10146000C8600846C06820F48040C8600E48048008
:10147000001D008842F20C0108430B49091D088039
:101480000846008840F0200008800223252203211E
:101490000846FFF79FFABDE8F09F000040420F00AA
:1014A0000010024004080140083801404FEA11537F
:1014B000A3F58063D3F11E03A8BFD3F1200C08DB92
:1014C0004FF0004242EAC12252EA505232FA03F08F
:1014D000704709420BD4102BC4BF0020704703F59E
:1014E000787CBCF1FF3F05D04FF0FF3070474FF0E4
:1014F0000000704770B500F0C3F800BF4992248027
:1015000000207047F0E7B0FA80F310FA03F10AD038
:10151000C3F11D0303F580634FEA41504FEA0352C4
:1015200002EBD12170474FF000007047DFF848C14F
:1015300070B51CEA111E1EBF1CEA13159EEA0C0FA3
:1015400095EA0C0F00F06F8081EA030423EA4C1344
:101550004EEAD47E21EA4C1141F4801143F4801309
:10156000AE44A1FB024CA0FB0365AEF17F7E3619B1
:1015700055EB0C05A1FB034C4CF10003A0FB021C36
:1015800016EB0C06654153F10003094218BF46F003
:10159000010613F4007F0BD14FEA03314FEA053007
:1015A000340341EA155140EA16506FF003020AE095
:1015B0004FEAC3214FEAC520F40241EA555140EAFF
:1015C00056506FF0020202EB2E4201EB025585EA03
:1015D000CE710AD05FEA440C18BF24F0004450F1E9
:1015E000000041F1000120EAD47040F2FE7C624527
:1015F00000D270BDA84214BF4FF080444FF0404469
:10160000002E08BF0024BEF1806FA8BFA1F1C04129
:10161000BDE8704080F282804FF0000001F1C041CF
:1016200001F0004170479EEA0C0F0CEA131518BF39
:1016300095EA0C0F06D04FF0000081EA030E0EF081
:10164000004170BD00F01CF88900013E00F007B8B1
:1016500000F009B84FEA430C5FEA5C5C08D081EA0D
:10166000030100F05BB84FEA410C5FEA5C5CF6D125
:101670004FF00000014970470000FF070000F87FAD
:101680000EF1020E2EF0030E5EF8046B364205D406
:10169000012A43EB030515F5001F12D8012841EB81
:1016A000010C1CF5001F0CD80ED14FEAD17C15F5AA
:1016B000001F0CEB4C0C0CF1020C08BF4CEBD37C64
:1016C00004E04FF0080C01E04FEAD37C0CEB4C0532
:1016D00026FA05F606F00706B6F1040C06D20EEB64
:1016E000860CBDE870404CF0010C6047DFE80CF060
:1016F000090B02024FF000414FF00000A1F500215C
:1017000070BD19461046012851EB010418BFD4F5ED
:10171000001484BF002001F0004170BD0808A0F54E
:1017200000114FEA3101704790EA010F48BF81F084
:10173000004100F12E82421A3CBF801A89184FEAFC
:10174000D0524FF07F4C1CEA410FA2EBD15318BF8F
:101750009CEA026F00F03B804FF0004C4CEA002006
:101760004CEA012121FA03FC10EB0C0C1ED202F111
:10177000FF325FEA1C2040EBC25038BF70471CF0BC
:101780007F0F4FEA400C18BFBCF17F4F38BF704746
:10179000C3F12003994008BF20F00100BCF17F4F46
:1017A00038BF7047A0F1C04000F0DDB94FEA3C00FF
:1017B000000A40EBC25028BF1CF0FF0F4FEA400C5C
:1017C000E6D018BFBCF17F4F38BF7047EAE79CEA0C
:1017D000026F05D010EA5C0F08BF00F000407047B0
:1017E00010B500F07AF900BF64FBBE3E4FF47F0CE9
:1017F0001CEAD0121EBF1CEAD11392EA0C0F93EA26
:101800000C0F00F0858090EA010F48BF42F480720F
:1018100040F4000C41F400002CF07F4120F07F40A8
:1018200000B58142A2EB03020FF2081CACEB504E54
:10183000C0F100009EF800E04FEA4E0E00FB0EFCE7
:1018400038BF49004FEA2C1C02F5FA020CFB0EF3DC
:101850004FEACE1E4FEA112C4FEAC1210EEB635E18
:1018600042EB22420EFB0CFC4FEA1C5300FB03111F
:101870004FEA112C4FEA01310EFB0CFC4FEADC4C15
:1018800000FB0C11C14228BF09184CEB03335DF873
:1018900004EB10EB410143EBC250B2F57C0F38BFB3
:1018A000704729D512F0F00F1CBF00F1C04000F0C6
:1018B00000407047008182838485868788898B8C6D
:1018C0008D8E8F919293959697999A9C9D9FA0A2A9
:1018D000A3A5A7A8AAACAEB0B2B3B5B7B9BCBEC0F9
:1018E000C2C5C7C9CCCED1D4D7D9DCDFE2E6E9EC9A
:1018F000F0F3F7FAFE0000004FEA400C0CF1807C98
:10190000BCF17E4F28BF7047B0F1C04000F02BB94A
:1019100090EA010F0CEAD11348BF42F4807262458D
:1019200038BF634507D213F47F0F16D080EA010059
:1019300000F00040704710B500F0CFF8097EFC3E83
:1019400000F005B880EA010000F00040704780EA2E
:10195000010000F0004000F006B912F47F0F04BF50
:101960000248704780EA010000F0FDB80000C07F27
:10197000C10DD1F19E0206DB4FEA002343F0004384
:1019800023FA02F07047004207D54FEA4001B1F157
:10199000FE4F02D24FF00000704710B500F09DF8E6
:1019A00049922480002070476FEA200070470000B1
:1019B000B0FA80F310FA03F2C3F19D030AD0D905FF
:1019C00001EB1220530638BF704700F1010008BF39
:1019D00020F00100704700004FF47F0C1CEAD01289
:1019E0001EBF1CEAD11392EA0C0F93EA0C0F00F011
:1019F000478090EA010F48BF42F480724FF0004CDC
:101A00004CEA00204CEA012102EB0302A0FB011387
:101A1000A2F50002002918BF43F001035B0028BFB4
:101A20004FEA330342EB22425FEA132C4CEBC250E5
:101A30002EBFBCEB436FB2F57C0F70474FEA036CCF
:101A4000BCF1004F08BF20F00100B2F57C0F38BF99
:101A500070470BD582F0FF0212F5803FC8BF704778
:101A600000F1C040D8BF00F00040704700F5000C06
:101A70005FEA4C0C48BF7047B0F1C04000F073B84B
:101A800090EA010F0CEAD11348BF42F4807262451C
:101A900038BF634504D280EA010000F0004070477F
:101AA00010B500F01AF800BF8900013E00F007B839
:101AB00000F009B85FEA410C5FEA1C6C08D080EACC
:101AC000010000F050B85FEA400C5FEA1C6CF6D1F0
:101AD0004FF00040A0F5800070470EF1020E2EF08E
:101AE000030E5EF8044B244204D44FEA4102B2F1E3
:101AF0007F4F11D84FEA4003B3F17F4F0CD80ED17E
:101B00004FEAD07CB2F17F4F0CEB4C0C0CF1020C85
:101B100008BF4CEBD17C04E04FF0080C01E04FEA29
:101B2000D17C0CEB4C0324FA03F404F00704B4F169
:101B3000040C06D20EEB840CBDE810404CF0010CF6
:101B40006047DFE80CF0070802024FF00040A0F504
:101B5000800010BD0846420018BFD2F1807288BFD5
:101B600000F0004010BDFF2141EAD050C005704791
:101B700080F0004090EA010F7FF5DDAD81F000417B
:101B800000F007B890EA010F48BF81F000413FF52F
:101B9000D2AD421A04D882F00042A0EB02001144F8
:101BA0004FEAD0524FF07F4C1CEA410FA2EBD153C9
:101BB00018BF9CEA026F4AD04FF0004C4CEA00205C
:101BC0004CEA012121FA03FCB0EB0C0C0FD412F00B
:101BD000FE0F36D05FEA4C001DD5001240EBC2501C
:101BE00038BF70471CF03F0F18BF70470BE0A2F1E1
:101BF00001025FEA1C2040EBC25038BF70471CF066
:101C00007F0F18BF7047C3F12003994014BF401ED7
:101C100020F00100704780084FEA122308BF704788
:101C2000B0FA80FCA2EB0C02CCF1280C60FA0CF0AC
:101C300093EA122F04BF00EBC25070474FEAC37003
:101C40007047130A5FEADC1008BF7047F6E79CEAAA
:101C5000026F04D010EA5C0F08BF0020704710B577
:101C6000FFF73BFF40DFF63E81F000407047000089
:101C7000901C000800000020200000006C010008FB
:101C8000B01C000820000020280500008801000882
:101C90000000000000000000000001000000000043
:101CA0000000000000000000000000000000000034
:0400000508000131BD
:00000001FF
